:100000000C942A000C9447000C9447000C94470071
:100010000C9447000C9447000C94A8010C944700E2
:100020000C9447000C9447000C9447000C94470034
:100030000C9447000C94AB020C9447000C944700BE
:100040000C9447000C9447000C9447000C94470014
:100050000C94470011241FBECFE5D8E0DEBFCDBF12
:1000600010E0A0E6B0E0E8E6FCE002C005900D92EA
:10007000AA37B107D9F710E0AAE7B0E001C01D9296
:10008000A839B107E1F70E94D8020C9432060C940B
:100090000000CF92DF92EF92FF920F931F93CF93C6
:1000A000DF9384E6C82E80E0D82EE12CF12C00E00E
:1000B00010E0C0E0D0E086E090E00E940B05FC017B
:1000C000D6018D919D916D01918380832196D3837B
:1000D000C2830115110531F0D7011596FC93EE93FB
:1000E000149701C08F01C830D10511F07F01E3CF13
:1000F00015821482C801DF91CF911F910F91FF905B
:10010000EF90DF90CF900895AF92BF92CF92DF92A1
:10011000EF92FF920F931F93CF93DF93DC01FB01CC
:100120000D911C911197053B110508F07CC01296AA
:10013000ED90FC90139789E0E816F10408F073C085
:1001400082819381E816F90699F44130510529F42A
:10015000C0919000D091910004C0C0919200D091C4
:100160009300F983E883A480B58061E070E003C068
:100170005B0160E070E0E50188819981801791075B
:1001800048F01596BC92AE921497CD015D0121E026
:1001900030E012C0CF0120E030E00EC0C080D1803E
:1001A000C016D10660F4C280D380EC14FD04A9F01F
:1001B000CF010480F581E02D309781F726C02130F2
:1001C000310589F3EC01BD83AC831596FC93EE9366
:1001D0001497CD0121E030E0E6CF6130710501F1E7
:1001E0004130510529F4609190007091910004C054
:1001F0006091920070919300EB01F983E883648130
:100200007581EC017D836C830BC0232B39F4FC01D9
:10021000B583A48315961C921E921497F50103C012
:1002200061E070E0C6CFCF01DF91CF911F910F91B8
:10023000FF90EF90DF90CF90BF90AF900895EFE3E5
:10024000FCE93197F1F700C000009BB19923E9F375
:100250008CB90895FC0180E090E03AE021912D30C6
:1002600051F0AC01349FC001359F900D1124C0970F
:10027000820F911DF3CF0895EF92FF920F931F937A
:10028000CF93DF937C01E0919000F0919100008189
:100290001181EC01299130E020533109F8013383B9
:1002A0002283CE010E942A01F80191838083E0918C
:1002B0009200F091930000811181F701808190E01C
:1002C000C097F80193838283CE010E942A01F8012E
:1002D00091838083DF91CF911F910F91FF90EF90D9
:1002E00008950F931F93CF93DF938C01C82FD12FC5
:1002F000209779F08BB18823E9F3888199810E9456
:100300001F018A819B810E941F010C80DD81C02D0D
:10031000EFCFC801DF91CF911F910F9108958AB15E
:1003200088698AB980B5866880BD8091600089B986
:1003300080B58F7780BD10BC08958EB58A618EBD63
:1003400089B7806289BF08958FEF87BB88BB089506
:100350001F920F920FB60F9211242F933F934F933A
:100360005F936F937F938F939F93AF93BF93CF933D
:10037000DF93EF93FF938091820090918300892B0C
:10038000E1F48FEF88BBE0918E00F0918F006081E7
:10039000718180E090E00E941A042FE832EC41EB7A
:1003A00051E40E94A80420E030E849E854E40E94A7
:1003B0008A030E94EE0377BD66BD61E070E0E091C4
:1003C0008E00F0918F00828193810480F581E02D71
:1003D00042815381209182003091830084179507D8
:1003E00091F1215031092730310508F052C048B34E
:1003F0009C012150310981E090E001C0880F2A95CD
:10040000EAF78095842388BBE0918E00F0918F00FD
:10041000C481D5816881798180819181681B790B44
:1004200080E090E00E941A042FE832EC41EB51E4A6
:100430000E94A8040E94EE0377BD66BDD0938F0092
:10044000C0938E0026C0A901415051094730510583
:1004500040F628B30197AB0102C0440F551F8A959F
:10046000E2F7CA018095822388BBE0918E00F0916B
:100470008F008481958190938F0080938E0080916E
:100480008200909183000196909383008093820074
:1004900096CF80918200909183000897F4F148B341
:1004A000E0918E00F0918F0022813381215031093B
:1004B00081E090E001C0880F2A95EAF780958423B7
:1004C00088BBE0918E00F0918F006081718180E0A7
:1004D00090E00E941A042FE832EC41EB51E40E94B4
:1004E000A8049B01AC0160E070E385E395E40E9401
:1004F00089030E94EE0377BD66BDE0918400F09110
:1005000085008081918190938F0080938E008FEF82
:100510009FEF90938300809382008091820090915E
:100520008300019690938300809382001DBC1CBCC5
:10053000FF91EF91DF91CF91BF91AF919F918F91FB
:100540007F916F915F914F913F912F910F900FBECF
:100550000F901F9018951F920F920FB60F921124B3
:100560008F939F93EF93FF935F9BFECFE0918A0061
:10057000F0918B008CB18083E0918A00F0918B0028
:10058000CF01019690938B0080938A0080818D30FB
:1005900031F481E090E090937B0080937A00FF91AA
:1005A000EF919F918F910F900FBE0F901F90189514
:1005B000CF93DF9300D000D0CDB7DEB78CE790E0CB
:1005C00090938B0080938A000E9449009C838B83C8
:1005D0000E9449009A838983CE01039690938500F7
:1005E000809384008B819C8190938F0080938E00F8
:1005F00086E090E00E940B05909387008093860030
:1006000086E090E00E940B0590938D0080938C0013
:1006100086E890E090939100809390008CE890E0C1
:1006200090939300809392005F980E948F010E94A4
:10063000A4010E949D011DBC1CBC78948E010D5F1D
:100640001F4FCE0101967C0195E09A95F1F70000CD
:1006500080917A0090917B000197B1F78CE790E050
:100660000E943C0180918400909185008017910741
:1006700009F569817A81E0919200F091930040E060
:1006800050E0808191810E9484009A838983F09256
:100690008500E09284006B817C81E0919000F09174
:1006A000910041E050E0808191810E9484009C8310
:1006B0008B8320C06B817C81E0919000F091910050
:1006C00041E050E0808191810E9484009C838B8373
:1006D000109385000093840069817A81E0919200F3
:1006E000F091930040E050E0808191810E9484006D
:1006F0009A8389838CE790E090938B0080938A00A3
:1007000010927B0010927A00109283001092820067
:100710009BCF5058BB27AA270ED0E0C0D1D030F0D5
:10072000D6D020F031F49F3F11F41EF4C6C00EF471
:10073000E095E7FBBCC0E92FE2D080F3BA1762076F
:1007400073078407950718F071F49EF5FAC00EF44C
:10075000E0950B2EBA2FA02D0B01B90190010C01D1
:10076000CA01A0011124FF27591B99F0593F50F4E9
:10077000503E68F11A16F040A22F232F342F442741
:10078000585FF3CF469537952795A795F040539539
:10079000C9F77EF41F16BA0B620B730B840BBAF009
:1007A0009150A1F0FF0FBB1F661F771F881FC2F774
:1007B0000EC0BA0F621F731F841F48F48795779588
:1007C0006795B795F7959E3F08F0B3CF9395880F3F
:1007D00008F09927EE0F97958795089598D088F09F
:1007E0009F5790F0B92F9927B751A0F0D1F0660F1D
:1007F000771F881F991F1AF0BA95C9F712C0B13038
:1008000081F09FD0B1E008959CC0672F782F882792
:10081000B85F39F0B93FCCF3869577956795B39576
:10082000D9F73EF490958095709561957F4F8F4FE5
:100830009F4F0895E89409C097FB3EF490958095EA
:10084000709561957F4F8F4F9F4F9923A9F0F92F96
:1008500096E9BB279395F695879577956795B79514
:10086000F111F8CFFAF4BB0F11F460FF1BC06F5FFA
:100870007F4F8F4F9F4F16C0882311F096E911C00C
:10088000772321F09EE8872F762F05C0662371F02D
:1008900096E8862F70E060E02AF09A95660F771F41
:1008A000881FDAF7880F9695879597F9089597F935
:1008B0009F6780E870E060E008959FEF80EC089506
:1008C00000240A941616170618060906089500242F
:1008D0000A9412161306140605060895092E0394A9
:1008E000000C11F4882352F0BB0F40F4BF2B11F41D
:1008F00060FF04C06F5F7F4F8F4F9F4F089557FD7C
:100900009058440F551F59F05F3F71F04795880F7D
:1009100097FB991F61F09F3F79F087950895121614
:1009200013061406551FF2CF4695F1DF08C01616C0
:1009300017061806991FF1CF869571056105089471
:100940000895E894BB2766277727CB0197F9089588
:100950000BD0C4CFB5DF28F0BADF18F0952309F02B
:10096000A6CFABCF1124EECFCADFA0F3959FD1F372
:10097000950F50E0551F629FF001729FBB27F00D4D
:10098000B11D639FAA27F00DB11DAA1F649F6627A2
:10099000B00DA11D661F829F2227B00DA11D621FF1
:1009A000739FB00DA11D621F839FA00D611D221FAB
:1009B000749F3327A00D611D231F849F600D211D8F
:1009C000822F762F6A2F11249F5750408AF0E1F032
:1009D00088234AF0EE0FFF1FBB1F661F771F881F7B
:1009E00091505040A9F79E3F510570F060CFAACFBB
:1009F0005F3FECF3983EDCF3869577956795B79566
:100A0000F795E7959F5FC1F7FE2B880F911D96958F
:100A1000879597F90895CF93DF938230910510F46D
:100A200082E090E0E0919600F091970020E030E0C5
:100A3000A0E0B0E0309739F1408151814817590763
:100A4000B8F04817590771F482819381109729F003
:100A500013969C938E9312972CC09093970080933B
:100A6000960027C02115310531F04217530718F0C1
:100A7000A901DB0101C0EF019A01BD01DF01028084
:100A8000F381E02DD7CF21153105F9F0281B390B63
:100A90002430310580F48A819B816115710521F034
:100AA000FB019383828304C0909397008093960008
:100AB000FE01329644C0FE01E20FF31F8193919331
:100AC00022503109398328833AC020919400309113
:100AD0009500232B41F420917600309177003093DC
:100AE0009500209394002091740030917500211599
:100AF000310541F42DB73EB740917800509179000F
:100B0000241B350BE0919400F0919500E217F30758
:100B1000A0F42E1B3F0B2817390778F0AC014E5F6D
:100B20005F4F2417350748F04E0F5F1F5093950015
:100B3000409394008193919302C0E0E0F0E0CF01F4
:100B4000DF91CF910895CF93DF93009709F487C089
:100B5000FC01329713821282C0919600D0919700C7
:100B6000209781F420813181280F391F80919400D2
:100B7000909195008217930779F5F0939500E09393
:100B800094006DC0DE0120E030E0AE17BF0750F4E6
:100B900012964D915C9113979D014115510509F1F4
:100BA000DA01F3CFB383A28340815181840F951F73
:100BB0008A179B0771F48D919C911197840F951F53
:100BC00002969183808312968D919C9113979383C3
:100BD00082832115310529F4F0939700E093960064
:100BE0003EC0D9011396FC93EE9312974D915D91FF
:100BF000A40FB51FEA17FB0779F480819181840F58
:100C0000951F0296D90111969C938E9382819381B0
:100C100013969C938E931297E0E0F0E08A819B817B
:100C2000009719F0FE01EC01F9CFCE010296288160
:100C30003981820F931F20919400309195002817DD
:100C4000390769F4309729F41092970010929600B2
:100C500002C013821282D0939500C0939400DF915A
:080C6000CF910895F894FFCF35
:100C680067000100190032004B0064007D00960007
:0A0C7800A000B30000009800200067
:00000001FF
