:100000000C942A000C9447000C9447000C94470071
:100010000C9447000C9447000C94A9010C944700E1
:100020000C9447000C9447000C9447000C94470034
:100030000C9447000C94A9020C9447000C944700C0
:100040000C9447000C9447000C9447000C94470014
:100050000C94470011241FBECFE5D8E0DEBFCDBF12
:1000600010E0A0E6B0E0E0E7FCE002C005900D92F1
:10007000A837B107D9F710E0A8E7B0E001C01D929A
:10008000A639B107E1F70E94D6020C9436060C940B
:100090000000CF92DF92EF92FF920F931F93CF93C6
:1000A000DF9382E6C82E80E0D82EE12CF12C00E010
:1000B00010E0C0E0D0E086E090E00E940F05FC0177
:1000C000D6018D919D916D01918380832196D3837B
:1000D000C2830115110531F0D7011596FC93EE93FB
:1000E000149701C08F01C830D10511F07F01E3CF13
:1000F00015821482C801DF91CF911F910F91FF905B
:10010000EF90DF90CF900895EFE3FCE93197F1F79E
:1001100000C000009BB19923E9F38CB90895CF92F8
:10012000DF92EF92FF920F931F93CF93DF938C0197
:10013000EB016A018CB59DB50E948400F8016081D5
:100140007181653B710508F073C04281538149306C
:10015000510508F06DC08A819B8148175907A1F4A9
:10016000F1E0CF16D10429F4E0918E00F0918F00D8
:1001700004C0E0919000F0919100D183C083EC80A5
:10018000FD8021E030E003C07E0120E030E0F70197
:10019000808191818617970738F0F801F582E48213
:1001A000780181E090E012C0FE0180E090E00EC096
:1001B000A881B981A617B70760F4AA81BB814A1745
:1001C0005B0791F0FE010C80DD81C02D209781F747
:1001D00022C08130910589F315830483F801D5830A
:1001E000C48381E090E0E9CF2130310531F121E095
:1001F000C216D10429F4A0918E00B0918F0004C0E2
:10020000A0919000B0919100CD93DC932C813D8121
:100210003583248312C0892B29F415830483F801C4
:10022000158214828CB59DB50E948400E70108C038
:100230008CB59DB50E94840003C021E030E0C3CF9F
:10024000CE01DF91CF911F910F91FF90EF90DF9042
:10025000CF900895FC0180E090E03AE021912D30AC
:1002600051F0AC01349FC001359F900D1124C0970F
:10027000820F911DF3CF0895EF92FF920F931F937A
:10028000CF93DF937C01E0918E00F0918F0000818D
:100290001181EC01299130E020533109F8013383B9
:1002A0002283CE010E942A01F80191838083E0918C
:1002B0009000F091910000811181F701808190E020
:1002C000C097F80193838283CE010E942A01F8012E
:1002D00091838083DF91CF911F910F91FF90EF90D9
:1002E00008950F931F93CF93DF938C01C82FD12FC5
:1002F000209779F08BB18823E9F3888199810E9456
:1003000084008A819B810E9484000C80DD81C02D45
:10031000EFCFC801DF91CF911F910F9108958AB15E
:1003200088698AB980B5866880BD8091600089B986
:1003300080B58F7780BD10BC5F9808958EB58A61B7
:100340008EBD89B7806289BF08958FEF87BB88BB58
:1003500008951F920F920FB60F9211242F933F937F
:100360004F935F936F937F938F939F93AF93BF93BD
:10037000CF93DF93EF93FF931DBC1CBC8091820051
:1003800090918300892BE1F48FEF88BBE0918C0082
:10039000F0918D006081718180E090E00E941E04E8
:1003A0002FE832EC41EB51E40E94AC0420E030E84D
:1003B00049E854E40E948E030E94F20377BD66BDB3
:1003C00041E050E0E0918C00F0918D0082819381BA
:1003D0000480F581E02D628173812091820030914B
:1003E00083008617970791F1215031092730310595
:1003F00008F04FC048B39C012150310981E090E0E2
:1004000001C0880F2A95EAF78095842388BBE09184
:100410008C00F0918D00C481D581688179818081C3
:100420009181681B790B80E090E00E941E042FE808
:1004300032EC41EB51E40E94AC040E94F20377BD20
:1004400066BDD0938D00C0938C0023C01216130696
:100450005CF628B30197BA0102C0660F771F8A9530
:10046000E2F7CB018095822388BBE0918C00F0916C
:100470008D008481958190938D0080938C00809174
:100480008200909183000196909383008093820074
:1004900099CF80918200909183000897F4F148B33E
:1004A000E0918C00F0918D0022813381215031093F
:1004B00081E090E001C0880F2A95EAF780958423B7
:1004C00088BBE0918C00F0918D006081718180E0AB
:1004D00090E00E941E042FE832EC41EB51E40E94B0
:1004E000AC049B01AC0160E070E385E395E40E94FD
:1004F0008D030E94F20377BD66BDE0918400F09108
:1005000085008081918190938D0080938C008FEF86
:100510009FEF90938300809382008091820090915E
:10052000830001969093830080938200FF91EF9166
:10053000DF91CF91BF91AF919F918F917F916F91FB
:100540005F914F913F912F910F900FBE0F901F9091
:1005500018951F920F920FB60F9211248F939F93AD
:10056000EF93FF935F9BFECFE0918800F0918900AD
:100570008CB18083E0918800F0918900CF010196D1
:10058000909389008093880080818D3031F481E0E0
:1005900090E090937B0080937A00FF91EF919F9180
:1005A0008F910F900FBE0F901F901895CF93DF93F0
:1005B00000D000D0CDB7DEB70E948F010E94A50108
:1005C0000E949E010E9449009C838B830E944900E7
:1005D0009A838983CE01039690938500809384004B
:1005E0008B819C8190938D0080938C0086E090E0BD
:1005F0000E940F05909387008093860086E090E02C
:100600000E940F0590938B0080938A0086E890E00B
:1006100090938F0080938E008AE890E090939100F1
:10062000809390008CE790E09093890080938800FD
:100630005F988B819C810E94710189819A810E94BF
:1006400071011DBC1CBC78948E010D5F1F4FCE0143
:1006500001967C018FE39CE90197F1F700C000004F
:1006600080917A0090917B000197A1F78CE790E050
:100670000E943C0180918400909185008017910731
:1006800009F569817A81E0919000F091910040E054
:1006900050E0808191810E948F009A838983F0923B
:1006A0008500E09284006B817C81E0918E00F09166
:1006B0008F0041E050E0808191810E948F009C83F7
:1006C0008B8320C06B817C81E0918E00F0918F0044
:1006D00041E050E0808191810E948F009C838B8358
:1006E000109385000093840069817A81E0919000E5
:1006F000F091910040E050E0808191810E948F0054
:100700009A8389838CE790E0909389008093880096
:1007100010927B0010927A009DCF5058BB27AA27D9
:100720000ED0E0C0D1D030F0D6D020F031F49F3FD1
:1007300011F41EF4C6C00EF4E095E7FBBCC0E92F2F
:10074000E2D080F3BA17620773078407950718F0A1
:1007500071F49EF5FAC00EF4E0950B2EBA2FA02D81
:100760000B01B90190010C01CA01A0011124FF275E
:10077000591B99F0593F50F4503E68F11A16F04059
:10078000A22F232F342F4427585FF3CF4695379558
:100790002795A795F0405395C9F77EF41F16BA0B1D
:1007A000620B730B840BBAF09150A1F0FF0FBB1FCB
:1007B000661F771F881FC2F70EC0BA0F621F731F14
:1007C000841F48F4879577956795B795F7959E3F71
:1007D00008F0B3CF9395880F08F09927EE0F9795FF
:1007E0008795089598D088F09F5790F0B92F992752
:1007F000B751A0F0D1F0660F771F881F991F1AF02C
:10080000BA95C9F712C0B13081F09FD0B1E0089518
:100810009CC0672F782F8827B85F39F0B93FCCF399
:10082000869577956795B395D9F73EF49095809521
:10083000709561957F4F8F4F9F4F0895E89409C041
:1008400097FB3EF490958095709561957F4F8F4F03
:100850009F4F9923A9F0F92F96E9BB279395F69519
:10086000879577956795B795F111F8CFFAF4BB0F97
:1008700011F460FF1BC06F5F7F4F8F4F9F4F16C0FB
:10088000882311F096E911C0772321F09EE8872F85
:10089000762F05C0662371F096E8862F70E060E041
:1008A0002AF09A95660F771F881FDAF7880F9695BA
:1008B000879597F9089597F99F6780E870E060E061
:1008C00008959FEF80EC089500240A9416161706E9
:1008D00018060906089500240A9412161306140631
:1008E00005060895092E0394000C11F4882352F094
:1008F000BB0F40F4BF2B11F460FF04C06F5F7F4F4C
:100900008F4F9F4F089557FD9058440F551F59F032
:100910005F3F71F04795880F97FB991F61F09F3FEC
:1009200079F087950895121613061406551FF2CF15
:100930004695F1DF08C0161617061806991FF1CF65
:1009400086957105610508940895E894BB2766278C
:100950007727CB0197F908950BD0C4CFB5DF28F0E6
:10096000BADF18F0952309F0A6CFABCF1124EECF54
:10097000CADFA0F3959FD1F3950F50E0551F629FFA
:10098000F001729FBB27F00DB11D639FAA27F00DE8
:10099000B11DAA1F649F6627B00DA11D661F829F0F
:1009A0002227B00DA11D621F739FB00DA11D621FF4
:1009B000839FA00D611D221F749F3327A00D611D11
:1009C000231F849F600D211D822F762F6A2F1124F3
:1009D0009F5750408AF0E1F088234AF0EE0FFF1F46
:1009E000BB1F661F771F881F91505040A9F79E3F7D
:1009F000510570F060CFAACF5F3FECF3983EDCF377
:100A0000869577956795B795F795E7959F5FC1F7B9
:100A1000FE2B880F911D9695879597F90895CF9392
:100A2000DF938230910510F482E090E0E091940031
:100A3000F091950020E030E0A0E0B0E0309739F18F
:100A40004081518148175907B8F04817590771F488
:100A500082819381109729F013969C938E9312971D
:100A60002CC0909395008093940027C021153105E8
:100A700031F04217530718F0A901DB0101C0EF0163
:100A80009A01BD01DF010280F381E02DD7CF21154E
:100A90003105F9F0281B390B2430310580F48A81A7
:100AA0009B816115710521F0FB019383828304C052
:100AB0009093950080939400FE01329644C0FE010D
:100AC000E20FF31F819391932250310939832883D8
:100AD0003AC02091920030919300232B41F4209151
:100AE0007400309175003093930020939200209110
:100AF0007200309173002115310541F42DB73EB7D6
:100B00004091760050917700241B350BE0919200C4
:100B1000F0919300E217F307A0F42E1B3F0B281768
:100B2000390778F0AC014E5F5F4F2417350748F066
:100B30004E0F5F1F509393004093920081939193C7
:100B400002C0E0E0F0E0CF01DF91CF910895CF93B4
:100B5000DF93009709F487C0FC0132971382128259
:100B6000C0919400D0919500209781F4208131812B
:100B7000280F391F8091920090919300821793075C
:100B800079F5F0939300E09392006DC0DE0120E0D0
:100B900030E0AE17BF0750F412964D915C91139759
:100BA0009D014115510509F1DA01F3CFB383A28309
:100BB00040815181840F951F8A179B0771F48D9195
:100BC0009C911197840F951F0296918380831296B2
:100BD0008D919C911397938382832115310529F47C
:100BE000F0939500E09394003EC0D9011396FC93D6
:100BF000EE9312974D915D91A40FB51FEA17FB0775
:100C000079F480819181840F951F0296D901119604
:100C10009C938E938281938113969C938E931297CB
:100C2000E0E0F0E08A819B81009719F0FE01EC0181
:100C3000F9CFCE01029628813981820F931F20912E
:100C40009200309193002817390769F4309729F4FE
:100C5000109295001092940002C013821282D093D9
:100C60009300C0939200DF91CF910895F894FFCF45
:100C7000670014001E00280032003C0046005000AF
:080C80005A000000960020005C
:00000001FF
